:0400000081312529FC
:10000800803120007F08A6008B138B1A0B1D1B283C
:1000180064304D064E04031D1428CD01CE0165152C
:100028000130CD070030CE3D0B11CD3095003D009D
:10003800201A201CA22801302000A0002008E10777
:10004800E518922861080A3A031D2C28E514E101F5
:100058006608F0006708F100890D893B8909F200FC
:10006800F3000030F7000030F600F530F5000030FE
:10007800F40084310124803170082000A000710848
:10008800A1007208A2007308A3000C30A336A20CCA
:10009800A10CA00C890B4A282009A4002109A5005D
:1000A800A40A0319A50A2408003EFC00FA30253DDD
:1000B800FD0085316325803120006608F00067085F
:1000C800F100890D893B8909F200F3000030F7003F
:1000D8000030F600F530F5000030F40084310124DA
:1000E800803170082000A0007108A1007208A200E9
:1000F8007308A3000D30A336A20CA10CA00C890B29
:100108007F282009A4002109A500A40A0319A50A2B
:100118002408003EFC007D30253D9C282000610815
:10012800FA3A031D9928E510E1010030FC0000307F
:10013800FD0085315C2580313D0020102100911E95
:10014800B6282000911EB628230019082000A00018
:100158005E08A03E86008701200881000130A000CB
:100168002008DE072100111ED5282000111ED528E1
:100178005F080319D1286408B43E86008701010886
:1001880023009A0001302000A0002008E40764083A
:100198005F06031DD528DF01E40123009E1221001C
:1001A80011122100111F20292000111F202964305D
:1001B80063020318E5280130A0002008E307651052
:1001C800E928E30165142100111321001C0820000F
:1001D800A000A1012008A100A0016308A200A301BA
:1001E800A235A30D2830A4002730A5002208240733
:1001F80086002308253D87002008C03F2108C13F0D
:1002080021001B082000A000A1016308A200A3018F
:10021800A235A30D2830A4002730A5002208240702
:1002280086002308253D87002008810441312108E4
:100238008104111321009D148B1720002608FF004C
:100248000900813127292830840027308500C830EB
:10025800FE000030FF0085312C258131E501453055
:100268008400003085002030FE000030FF0085311A
:100278002C258131A0308400003085003C30FE0000
:100288000030FF0085312C25813185317025813181
:10029800E60085317125E70020008231122A20000E
:1002A800C1003630B8003808BA003508B50A8431BC
:1002B8000A008131B8003808C200C20803190D2AA3
:1002C8004208253A031974294208B80041088600F3
:1002D8008701380881000130B8003808C10759295A
:1002E800BB013508B50A84310A008131C200003AE1
:1002F80003190D2A643A031985290D3A031985292A
:1003080059293A0886008701403FBD00413FBE0099
:100318000230B8003808BA07BE1F9B290330B8005E
:100328003808BB04BD09BE09BD0A0319BE0AC201CB
:10033800C20A4208053A0319BD29ED308400843009
:100348008500423584070318850A003FB800013F3D
:10035800B90039083E02031DB32938083D02031CC1
:10036800BD290130B8003808C2074208053A031D04
:10037800A1293B0803390319CC292D30B8004108BD
:1003880086008701380881000130B8003808C107A5
:100398004208B8003808BC00FF30B8003808BC076D
:1003A8003C08FF3A031959290A30AF000030B00061
:1003B800ED308400843085003C3584070318850AB5
:1003C800003FA700013FA8003E08AA01AA073D0870
:1003D800A901A90783319B23813120002808B20194
:1003E800B2072708B101B1078331D2238131200038
:1003F8002F08303EB8003808C2004208B80041084B
:1004080086008701380881000130B8003808C10724
:10041800D0294108860087018101080085316925B6
:1004280082318431CF24823100308431AE2482314C
:100438002000C300C4014308E6004408E700643014
:100448008531002582312000651D272A6511043079
:100458008E060130C9070030CA3D013084318A2434
:10046800823120002808D001D0072708CF01CF0704
:100478001430A7000030A8005309C3005409C40071
:10048800C30A0319C40A4F084307A9005008443D8A
:10049800AA008231C0228231200053082707D100E8
:1004A8005408283DD20054085206031D5D2A5308FB
:1004B8005106031D7D2A54085006031D652A53085A
:1004C8004F0603197D2A5408803AC3005008803A21
:1004D8004302031D712A4F0853020318782A01307A
:1004E8002000D10700307C2AFF302000D107FF30E0
:1004F800D23D8C1F8B2ADD08031D8B2A6608C3009A
:100508004308A700003084315E2482318E2A1030DF
:100518003D00A00020005208D401D4075108D3019F
:10052800D3075208E701E7075108E601E60701305B
:10053800C3004308E2076208323A031DB92AF730BC
:10054800C3004308B5005208B701B7075108B60100
:10055800B607C8308131532182312000A701C83045
:100568008331142382312000E20100308C1B0130DA
:10057800C3004308DD00272A2000AD01A81FCB2AAD
:10058800A709A809A70A0319A80AAD01AD0AAA1F55
:10059800D62AA909AA09A90A0319AA0A0130AB008F
:1005A8002B08AD06AE01AF01280827040319052B57
:1005B800AC01AC0AA81BEA2A0130A735A80D890BA3
:1005C800E12A0130AB002B08AC07DE2A0130AE353A
:1005D800AF0D890BEB2A28082A02031DF52A2708E4
:1005E8002902031CFC2A2708A9022808AA3B2E1462
:1005F8000130A836A70C890BFD2A0130AC02031D77
:10060800EA2A2D0803190D2BAE09AF09AE0A031902
:10061800AF0A2F08A801A8072E08A701A7070800F6
:100628002000AA00DF08031D0800A70803192F2BC4
:10063800392B5F082A07A8002808860087010108C7
:10064800A9005F08B43E86008701290881000130AF
:10065800A8002808DF075F082A07A80028088600DE
:100668008701810803195E2B1D2BAB01AC012C08F7
:10067800803AA80080302802031D442B27082B024B
:1006880003185E2B20002B082A07A80028088600DC
:1006980087010108A9002B08B43E860087012908B4
:1006A80081000130A8002808DF070130AB070030BF
:1006B800AC3D3B2B2100111623009E16080020009C
:1006C800A9000130A800290A6A2BA835890B692BD3
:1006D800280821000C048C0001302000A800290AF9
:1006E800762BA835890B752B280823000C048C0061
:1006F800F03021009E000F309F0020002908A8003C
:100708000130A835FF3E031D852B28357C39210093
:100718009D001D1421302000A800A80B912B21005A
:100728009D141D082000A8002808DC0008002000EF
:10073800AC01AD01280827040319CB2BAE01AE0A82
:10074800A81BB02B0130A735A80D890BA72B0130AA
:10075800AB002B08AE07A42B0130AC35AD0D890BCF
:10076800B12B28082A02031DBB2B27082902031CCA
:10077800C22B2708A9022808AA3B2C140130A83646
:10078800A70C890BC32B0130AE02031DB02B2D081B
:10079800A801A8072C08A701A7070800200030080F
:1007A8002F040319FA2BB401B40AB01BE52B01304E
:1007B800AF35B00D890BDC2B0130B3003308B4071B
:1007C800D92B30083202031DEB2B2F083102031CF2
:1007D800F12B2F08B1023008B23B0130B036AF0C14
:1007E800890BF22B0130B402031DE52B3208B0014E
:1007F800B0073108AF01AF0708000030FB00003038
:10080800FA000030F9000030F800701C132C74084E
:10081800F8077508F93D7608FA3D7708FB3D013081
:10082800F435F50DF60DF70D890B142C0130F33660
:10083800F20CF10CF00C890B1B2C73087204710478
:100848007004031D092C7B08F3007A08F20079086C
:10085800F1007808F000080023008E010030200025
:10086800A7007D30A800853138258431003020006C
:10087800A700FA30A80085314B25843100302000CC
:10088800A7000030A8008531422501303D009400C2
:100898001030A000033095000330AE0096011C1400
:1008A8001A141B14A901AA01F130910021000E109D
:1008B8008E1008002000AA0023009518602C200044
:1008C8002A08A800A9012808230091002000290867
:1008D8002300920020002708230093003F302000C7
:1008E800A800280823009505200003108B1B03147B
:1008F8008B132300151555309600AA3096009514D1
:1009080015112000031C08008B17080020005C0844
:1009180021009D001C082000A900AA012908AB009D
:100928002A08AC000830AB35AC0D890B972C210098
:100938001B082000A900AA012908AB042A08AC0456
:1009480021009D1420002C08A801A8072B08A70146
:10095800A70708002000AA00B22C2000640023008A
:100968009518B12C20002A08A700A8012708230001
:10097800910020002808230092003F302000A900A1
:1009880029082300950515140310151803140030C1
:10099800093D13080800CD3020009500A0308B00D9
:1009A8008330210095000E112000A701013083310A
:1009B8006323843185311225843185316D25843155
:1009C80085315425843185311F258B168B170800F6
:1009D8000034013400340A34003464340034E83418
:1009E8000334103427344134443443343A342534FE
:1009F80064340D340A3400342000A80021001D0896
:100A08002000A7002708DC0021001D08833978385A
:100A18009D002000280822009900080021000C11E0
:100A280023000C11220018141808F339980098169E
:100A380018129817080021000E178E1723009C0122
:100A480044309B001E159F151E129D171D16080089
:100A58006400800101310130FE020030FF3B7F0855
:100A68007E04031900342D2D200027083D00A30023
:100A7800200028083D00A4001117080020002708BE
:100A88003D00A100200028083D00A2000800200029
:100A980027083D00A500200028083D00A600080002
:100AA80023008C138C1221008C178C160C1708004D
:100AB8007C083D00A3007D08A400111708007C08ED
:100AC8003D00A5007D08A6000800FC302100990023
:0C0AD80008008431302408000C340C3479
:020000040001F9
:04000E0084F9FFDF93
:00000001FF
