:0400000081312829F9
:10000800803120007F08A6008B138B1A0B1D1F2838
:100018006430210048064904031D1628C801C90197
:100028002000671501302100C8070030C93D0B11B9
:10003800CD30200095003D00201A201CA828013052
:100048002000A00020082100E6072000E7189628D5
:1000580021006608283A031D35282000E7142100EE
:10006800E60120006508F0006608F100F201F301DE
:100078000030F7000030F6003C30F500F030F400B6
:1000880089313621803170082000A0007108A10054
:100098007208A2007308A3000C30A336A20CA10CAE
:1000A800A00C890B51282009A4002109A500A40A45
:1000B8000319A50A2408803EFC003E30253DFD00BA
:1000C8009731CF27803120006508F0006608F100DD
:1000D800F201F3010030F7000030F6003C30F50083
:1000E800F030F40089313621803170082000A000FA
:1000F8007108A1007208A2007308A3000D30A3368E
:10010800A20CA10CA00C890B83282009A4002109AA
:10011800A500A40A0319A50A2408403EFC001F30C4
:10012800253DA22821006608C83A031D9F28200003
:10013800E7102100E6010030FC000030FD00973197
:10014800DB2780313D0020102100911EBD282000B2
:10015800911EBD28230019082000A0006208A03EB7
:10016800860001308700200881000130A0002008A7
:10017800E2072100111EE1282000111EE128630872
:100188000319DD2821006D08343E86000130870000
:10019800010823009A0001302000A0002008210057
:1001A800ED076D0820006306031DE128E301210027
:1001B800ED0123009E12210011122100111F232995
:1001C8002000111F23290A3021006C020318F5288A
:1001D80001302000A00020082100EC072000671053
:1001E800FC282100EC0120006714210011131116CE
:1001F80021001C082000A000A1012008A100A001E6
:1002080021006C35203E8600013087002000200840
:10021800C03F2108C13F21001B082000A000A10108
:1002280021006C35203E8600013087002000200820
:100238008104413121088104111321009D148B1779
:1002480020002608FF00090081312A29E7015430DF
:1002580084000030850013309731D5278131A030D4
:100268008400003085004F309731D5278131203008
:100278008400013085004A309731D5278131A0307C
:1002880084000130850014309731D5272000813152
:100298004D292300BB01B4019731CB278131883127
:1002A8007120813121001D082000C8004808210064
:1002B800E10000308831592081312000E4016408D0
:1002C8008831592081312000E501E6016508643E46
:1002D800A7000030663DA800A901AA010330AE00BE
:1002E800D030AD009030AC000030AB008631D42661
:1002F800813120002808B701B7072708B601B607DB
:100308009731EA27813120006508643EA700003054
:10031800663DA800A901AA010130AE00E830AD0091
:100328004830AC000030AB008631D4268131200043
:100338002808B701B7072708B601B6078731F52798
:10034800813102302000CA000430C900BA30C80028
:10035800C80BAC29C90BAC29CA0BAC29000020007A
:10036800640888315920813102302000CA000430E5
:10037800C900BA30C800C80BBF29C90BBF29CA0BAE
:10038800BF29000023003408031DCA2C09308A3114
:100398000022813120002808D701D7072708D60175
:1003A800D6072300B701083037020318272A21008F
:1003B8003B08BD01BD073A08BC01BC073908BB01B1
:1003C800BB073808BA01BA073708B901B9073608B0
:1003D800B801B80720005D082100B701B707200061
:1003E8005C082100B601B60720005B08DD01DD07C7
:1003F8005A08DC01DC075908DB01DB075808DA0179
:10040800DA075708D901D9075608D801D80709309B
:100418008A310022813120002808D701D707270810
:10042800D601D607F930C8000000C80B182A1C2AC4
:10043800000001302000C80048082300B707083032
:100448003702031CDB2908302000A7000030A80071
:1004580058085607C8005908573DC9005A084807A0
:10046800CA005B08493DCB005C084A07CC005D0820
:100478004B3DCD002100360820004C07CE0021005E
:10048800370820004D3DCF002100380820004E07D6
:10049800D0002100390820004F3DD10021003A0842
:1004A80020005007D20021003B082000513DD30016
:1004B80021003C0820005207A90021003D08200027
:1004C800533DAA008A318122813120002808D501B4
:1004D800D5072708D401D4075508803AFF008F3084
:1004E8007F02031D792A9B3054020318342C200004
:1004F8005508803AC80021003508803A2000480293
:10050800031D8A2A210034082000540203188E2A69
:1005180064308F2A0A302000E5070030E63D650880
:10052800643EA7000030663DA800A901AA01033077
:10053800AE00D030AD009030AC000030AB0086315A
:10054800D426813120002808B701B7072708B6014B
:10055800B6079731EA27813120006508643EA70075
:100568000030663DA800A901AA010130AE00E830BC
:10057800AD004830AC000030AB008631D426813164
:1005880020002808B701B7072708B601B607873142
:10059800F527813102302000CA000430C900BA3082
:1005A800C800C80BD52AC90BD52ACA0BD52A000002
:1005B8004E3020006602213003196502031C452BCA
:1005C800210053082000E601E60721005208200018
:1005D800E501E507210063082000C8004808E40099
:1005E800640888315920813120006508643EA700DD
:1005F8000030663DA800A901AA010330AE00D03042
:10060800AD009030AC000030AB008631D42681318B
:1006180020002808B701B7072708B601B6079731A1
:10062800EA27813120006508643EA7000030663D56
:10063800A800A901AA010130AE00E830AD00483099
:10064800AC000030AB008631D42681312000280868
:10065800B701B7072708B601B6078731F5278131F3
:1006680002302000CA000430C900BA30C800C80BE4
:100678003B2BC90B3B2BCA0B3B2B00002300B401BF
:10068800B40A2100EE08031DA72C3308803A200085
:10069800C8005508803A4802031D552B540821000C
:1006A80032020318A72C21003308803AFF008F304C
:1006B8007F02031D612B9B3032020318A72C2000F8
:1006C80055082100B301B307200054082100B201E6
:1006D800B207200066082100D301D307200065086F
:1006E8002100D201D207A72CFA3020006402031897
:1006F800812B0130C8004808E40764088831592074
:10070800813127302000C900F530C800C80B8A2B7A
:10071800C90B8A2B09308A31002281312000280830
:10072800D701D7072708D601D6072300B801083014
:1007380038020318EB2B21003B08BD01BD073A081E
:10074800BC01BC073908BB01BB073808BA01BA07A6
:100758003708B901B9073608B801B80720005D089D
:100768002100B701B70720005C082100B601B607D1
:1007780020005B08DD01DD075A08DC01DC075908A9
:10078800DB01DB075808DA01DA075708D901D9076E
:100798005608D801D80709308A3100228131200053
:1007A8002808D701D7072708D601D607F930C80087
:1007B8000000C80BDC2BE02B000001302000C80033
:1007C80048082300B80708303802031C9F2B08305C
:1007D8002000A7000030A80058085607C80059088C
:1007E800573DC9005A084807CA005B08493DCB0075
:1007F8005C084A07CC005D084B3DCD002100360857
:1008080020004C07CE002100370820004D3DCF00C6
:100818002100380820004E07D000210039082000A8
:100828004F3DD10021003A0820005007D200210096
:100838003B082000513DD30021003C08200052070E
:10084800A90021003D082000533DAA008A318122D9
:10085800813120002808D501D5072708D401D407FD
:1008680020005508803AFF008B307F02031D3E2C84
:10087800B93054020318782B200064082100630261
:100888000318562C20006408C80048082100E3001B
:10089800200066082100D301D30720006508210045
:1008A800D201D2070A302000E5070030E63D65088E
:1008B800643EA7000030663DA800A901AA010330E4
:1008C800AE00D030AD009030AC000030AB008631C7
:1008D800D426813120002808B701B7072708B601B8
:1008E800B6079731EA27813120006508643EA700E2
:1008F8000030663DA800A901AA010130AE00E83029
:10090800AD004830AC000030AB008631D4268131D0
:1009180020002808B701B7072708B601B6078731AE
:10092800F527813102302000CA000430C900BA30EE
:10093800C800C80B9D2CC90B9D2CCA0B9D2C000010
:100948002100EE01EE0A200055082100B501B50787
:10095800200054082100B401B40719302000C80051
:100968004808B5005508B701B7075408B601B607D7
:1009780056308A31D52281312000A701563087317F
:1009880056278131003A031DC629C02C20008E311C
:10099800671D3F2E671101302100C0070030C13D9F
:1009A80001302200CC070030CD3D0030CE3D003074
:1009B800CF3D01308A3100228131200028082100F2
:1009C800CB01CB07200027082100CA01CA0709303C
:1009D8008A310022813120002808E101E107270837
:1009E800E001E00761082300B601B60720006008AF
:1009F8002300B501B5070F302000A7000030A8007C
:100A080021005A092000C80021005B092000C90004
:100A1800C80A0319C90A60084807A9006108493DBE
:100A2800AA008A318122813121005A082000270733
:100A3800E00021005B082000283DE10021005B0860
:100A480020006106031D2C2D21005A082000600695
:100A5800031D4E2D2300360820006106031D382D86
:100A6800230035082000600603194E2D23003608A0
:100A780020006102031D442D230035082000600278
:100A880003184A2D0130E00700304D2DFF30E007F4
:100A9800FF30E13D21006908013A031D582D6B081C
:100AA800013A031D582DE9015608643E2000C8008C
:100AB80000302100573D2000C9004908803ACA008B
:100AC8006108803A4A02031D6B2D6008480203182A
:100AD800872D21005608643E2000C8000030210000
:100AE800573D2000C9004908803ACA0021005B0828
:100AF800803A20004A02031D852D21005A08200053
:100B08004802031C932D21004308803AFF008030DF
:100B18007F02031D912D40304202031CA32D2000AB
:100B280061082100D701D707200060082100D601FD
:100B3800D607C201C301E5012000DE01DF01013053
:100B48002000C80048082100E5076508083A031D89
:100B5800CF2D64080319BB2DE40120006108210092
:100B6800D701D707200060082100D601D60720004A
:100B78006009C8006109C900C80A0319C90A210027
:100B8800560820004807DE00210057082000493D8C
:100B9800DF002100E50156089C3E2000C800FF3018
:100BA8002100573D2000C9004908803ACA00610861
:100BB800803A4A02031DE22D600848020318E72D17
:100BC8002100E901E90A20005F08803AFF0080302F
:100BD8007F02031DF12D29305E02031CFF2D210029
:100BE8006708FF3A03190B2E01302000C800480897
:100BF8002100E7070B2E2100E701200061082200F1
:100C0800D501D507200060082200D401D40706309A
:100C180021006702031C132EEB01EB0A142EEB01D3
:100C280020005F08803AFF0080307F02031D1E2EDF
:100C38003D305E02031C312E21004708803AFF0038
:100C480080307F02031D2A2EFF3046020318312E02
:100C580001302100C6070030C73D20005F08803AF8
:100C6800FF0080307F02031D3B2E1E305E020318FA
:100C7800402E2100C601C70121004708803AFF0025
:100C880080307F02031D4A2E05304602031C4F2E7A
:100C98002100EA01EA0A20006108803AFF008C304E
:100CA8007F02031D592EE5306002031C892E2100A6
:100CB8005B08803AFF008C307F02031D652EE5300B
:100CC8005A02031C892E2100E408031D892EFA30DC
:100CD800200064020318742E0130C8004808E40795
:100CE80064088831592081312100E401E40ACE30BA
:100CF8002000C80048082100E500F630C200FF3097
:100D0800C3002000DE01DF01D12E20005F08803AF9
:100D1800FF0083307F02031D932E85305E02031C83
:100D2800972E0430B22E20005F08803AFF008130F1
:100D38007F02031DA12E91305E02031CA52E0330F5
:100D4800B22E20005F08803AFF0080307F02031D2A
:100D5800AF2E97305E02031CB92E02302000C80067
:100D680048082300BB008C31E42C20005F08803A3F
:100D7800FF0080307F02031DC32E5B305E02031824
:100D8800CD2E21006B08013A0319CD2E6A080319EC
:100D9800D12E2300BB01BB0AB72E2300BB01B72EFF
:100DA8002000B101AA1FE52EA709A809A909AA09C7
:100DB800A70A0319A80A0319A90A0319AA0AB1015B
:100DC800B10AAE1FF62EAB09AC09AD09AE09AB0AE4
:100DD8000319AC0A0319AD0A0319AE0A0130AF00B2
:100DE8002F08B1060030B5000030B4000030B30061
:100DF8000030B2002A0829042804270403193F2FC9
:100E0800B001B00AAA1B142F0130A735A80DA90DEF
:100E1800AA0D890B092F0130AF002F08B007062F44
:100E28000130B235B30DB40DB50D890B152F2A0855
:100E38002E02031D292F29082D02031D292F2808FA
:100E48002C02031D292F27082B02031C342F2708E7
:100E5800AB022808AC3B2908AD3B2A08AE3B32144C
:100E68000130AA36A90CA80CA70C890B352F013024
:100E7800B002031D142F310803194D2FB209B3090D
:100E8800B409B509B20A0319B30A0319B40A031954
:100E9800B50A3508AA003408A9003308A8003208A2
:100EA800A70008002000AA00E308031DAB2FA7082D
:100EB8000319732F7E2F63082A07A80028088600C5
:100EC800013087000108A9006308343E860001301C
:100ED8008700290881000130A8002808E307630873
:100EE8002A07A8002808860001308700810803190E
:100EF800A52F5F2FAB01AC012C08803AA8008030E9
:100F08002802031D892F27082B020318A52F20006C
:100F18002B082A07A8002808860001308700010846
:100F2800A9002B08343E860001308700290881007B
:100F38000130A8002808E3070130AB070030AC3DBA
:100F4800802F2100111623009E1601300800003062
:100F580008002000AD01AA1FB82FA909AA09A90AEB
:100F68000319AA0AAD01AD0AA81FBF2FA709A8092E
:100F7800A70A0319A80A280827040319E62FAC01B1
:100F8800AC0AA81BD12F0130A735A80D890BC82F93
:100F98000130AB002B08AC07C52F28082A02031D17
:100FA800D72F27082902031CDD2F2708A9022808A4
:100FB800AA3B0130A836A70C890BDE2F0130AC0202
:100FC800031DD12F2D080319EE2FA909AA09A90A73
:100FD8000319AA0A2A08A801A8072908A701A70728
:100FE8000800200036083D00A300200037083D0017
:060FF800A400111708001F
:101000000034013400340A34003464340034E834E9
:10101000033410342734253430342E3434346434DB
:101020004134253430342E34343464340D340A34AD
:101030000034253464340D340A340A3400348831E1
:10104000D8200800200027083D00A1002000280823
:101050003D00A200080021000C1123000C15220005
:1010600018141808F2399800981698179901080072
:101070002000A800A7013A30280203184528303084
:101080002802031C4528A701A70A270C08002000F6
:10109000AA00A9012A1C50282708A8002808A90787
:1010A0000310A70D0310AA0CAA08031D4A2829083B
:1010B00008002000A80021001D082000A700270824
:1010C0002100E1001D0841393C389D000630200018
:1010D000A700A70B6928000020002808220099001B
:1010E0000800CD3020009500A0308B008330210017
:1010F00095000E112000A701013089319621883119
:1011000088312B20883188311F2088319731E227A0
:1011100088319731F3278B168B1708002000AB011D
:10112000AC01271C97282908AB072A08AC3D0130E1
:10113000A935AA0D890B98280130A836A70C890B70
:101140009D2828082704031D91282C08A801A8071A
:101150002B08A701A70708002000AA002300951864
:10116000AE2820002A08A800A90128082300910021
:101170002000290823009200200027082300930064
:101180003F302000A8002808230095052000031008
:101190008B1B03148B132300151555309600AA30B2
:1011A0009600951415112000031C08008B170800E9
:1011B00023008E0100302000B6007D30B70087315B
:1011C000F527883100302000B600FA30B70097319B
:1011D000EA27883100302000A7000030A8008831BD
:1011E000222001303D009400A0010330950003301F
:1011F000AE0096011C141A141B140A30A9000A3000
:10120000AA00F130910021000E108E10080020007D
:1012100030082F0403192F29B401B40AB01B1A296E
:101220000130AF35B00D890B11290130B3003308FF
:10123000B4070E2930083202031D20292F0831027D
:10124000031C26292F08B1023008B23B0130B0360A
:10125000AF0C890B27290130B402031D1A2932086B
:10126000B001B0073108AF01AF0708000030FB0044
:101270000030FA000030F9000030F800701C4829F6
:101280007408F8077508F93D7608FA3D7708FB3DC4
:101290000130F435F50DF60DF70D890B49290130B4
:1012A000F336F20CF10CF00C890B50297308720420
:1012B00071047004031D3E297B08F3007A08F200D4
:1012C0007908F1007808F0002000080000302000C4
:1012D000B2000030B1000030B0000030AF00271C79
:1012E00079292B08AF072C08B03D2D08B13D2E08F9
:1012F000B23D0130AB35AC0DAD0DAE0D890B7A2989
:101300000130AA36A90CA80CA70C890B81292A0840
:10131000290428042704031D6F293208AA00310874
:10132000A9003008A8002F08A70008002000A90085
:101330000130A800290A9D29A835890B9C29280875
:1013400021000C048C0001302000A800290AA929E2
:10135000A835890BA829280823000C048C00F0303C
:1013600021009E000F309F0020002908A8000130B6
:10137000A835FF3E031DB82928357C3921009D0082
:101380001D1421302000A800A80BC42921009D14A1
:1013900008002000AD01AE01280827040319F9292F
:1013A000AC01AC0AA81BDE290130A735A80D890BBA
:1013B000D5290130AB002B08AC07D2290130AD355F
:1013C000AE0D890BDF2928082A02031DE929270809
:1013D0002902031CF0292708A9022808AA3B2D147A
:1013E0000130A836A70C890BF1290130AC02031D8E
:1013F000DE292E08A801A8072D08A701A7070800C5
:101400002000AB002B08A9000230A935890B052A62
:101410007C302905AA0021001D08833920002A04F8
:1014200021009D001D1442302000A900A90B162A9E
:10143000000021009D149D181B2A1C082000A900F3
:10144000AA012908AC002A08AD000830AC35AD0D62
:10145000890B262A21001B082000A900AA012908BF
:10146000AC042A08AD04111721009D1420002D089A
:10147000A801A8072C08A701A707080020002A0830
:101480002904280427040319782AB001B00AAA1BEA
:10149000552A0130A735A80DA90DAA0D890B4A2A96
:1014A0000130AF002F08B007472A2A082E02031D7B
:1014B000632A29082D02031D632A28082C02031D14
:1014C000632A27082B02031C6D2A2708AB02280871
:1014D000AC3B2908AD3B2A08AE3B0130AA36A90C2B
:1014E000A80CA70C890B6E2A0130B002031D552AE7
:1014F0002E08AA002D08A9002C08A8002B08A70078
:1015000008002000AD01A81F8C2AA709A809A70A76
:101510000319A80AAD01AD0AAA1F972AA909AA09A9
:10152000A90A0319AA0A0130AB002B08AD06AE01C7
:10153000AF01280827040319C62AAC01AC0AA81B6E
:10154000AB2A0130A735A80D890BA22A0130AB00C8
:101550002B08AC079F2A0130AE35AF0D890BAC2AA2
:1015600028082A02031DB62A27082902031CBD2ABF
:101570002708A9022808AA3B2E140130A836A70C78
:10158000890BBE2A0130AC02031DAB2A2D080319BA
:10159000CE2AAE09AF09AE0A0319AF0A2F08A80177
:1015A000A8072E08A701A70708002000C3003630AF
:1015B000BA003A08BD003508B50A88310A008A31F8
:1015C000BA003A08C700C70803198F2C4708253A04
:1015D0000319F72A4708BA0043088600013087003C
:1015E0003A0881000130BA003A08C307DB2AC40177
:1015F000C501BE01002B3E150130BA003A08B507FF
:10160000350888310A008B31303A0319FB2A082B40
:10161000350888310A008B31883138208A31031C23
:10162000442B2000C401C5010A302000A70000306F
:10163000A8004508AA01AA074408A901A9078831FA
:101640008E208A3120002808C501C5072708C4015B
:10165000C407350888310A008B31D03EBA00FF300C
:1016600003180030BB003A08C4073B08C53D0130F1
:10167000BA003A08B507350888310A008B3188313D
:1016800038208A310318142B2000350888310A00CD
:101690008B312E3A031D732B0130BA003A08B5077F
:1016A000C601350888310A008B31883138208A31EB
:1016B000031C752B2000350888310A008B31BA00D5
:1016C0000A30BB003B08A7004608883147208A3112
:1016D00020003A07D03EBC003C08C6000130BA00EA
:1016E0003A08B507512B2000C60120003508B50A7D
:1016F00088310A008B31C700003A03198F2C643AF5
:101700000319862B0D3A0319862BDB2A3D08860028
:101710008701403FBF00413FC0000230BA003A0895
:10172000BD07C01F9C2B0330BA003A08BE04BF0996
:10173000C009BF0A0319C00AC608031DA72B400829
:101740003F04031DA72B0130BA003A08C607C701A2
:10175000C70A4708053A0319C92B013084008830AD
:101760008500473584070318850A003FBA00013F0A
:10177000BB003B084002031DBF2B3A083F02031C7D
:10178000C92B0130BA003A08C7074708053A031DBC
:10179000AD2B4708803ABA004608803ABA020318CF
:1017A000D62B4608BA003A08C700E22B4608803A12
:1017B000BA004708803ABA020318E22B4708BA0079
:1017C0003A08C600450844040319EE2B3E080339C5
:1017D0000319EE2BFF30C407FF30C53D4708BA00A0
:1017E000BB01BA1BBB033B08803ABC004508803AEA
:1017F0003C02031DFD2B44083A0203180A2C20006A
:101800004708BA00BB01BA1BBB033A08C4023B0835
:10181000C53B0D2C2000C401C5013E1D342C3E08E3
:10182000033903191F2C2D30BA00430886000130FC
:1018300087003A0881000130BA003A08C30745081A
:10184000440403195C2C3030BA0043088600013090
:1018500087003A0881000130BA003A08C307FF3018
:10186000C407FF30C53D1F2C4508440403194C2C08
:101870002030BA0043088600013087003A08810012
:101880000130BA003A08C307FF30C407FF30C53D36
:1018900045084404031D382C3E08033903195C2C09
:1018A0002D30BA0043088600013087003A088100D5
:1018B0000130BA003A08C307FF30BA003A08C60739
:1018C0004608FF3A0319DB2A0A30AF000030B000A7
:1018D0000130840088308500463584070318850A66
:1018E000003FA700013FA8004008AA01AA073F083F
:1018F000A901A9078931C9218A3120002808B2012C
:10190000B2072708B101B107893107218A312000C8
:101910002F08303EBA003A08C7004708512C430848
:101920008600013087008101080021004108803ACB
:10193000FF0080307F02031D9F2C33304002031CC8
:10194000A72C043020008E062100C001C101210017
:10195000C201C301EA01EB01E701C601C701F32C93
:1019600021004108803AFF0080307F02031DCE2C09
:101970001A30CD2C21004108803AFF0080307F02D0
:10198000031DCE2C0D30CD2C21004108803AFF00E4
:1019900080307F02031DCE2C07304002031CD62C62
:1019A000043020008E062100C001C1012100C201C7
:1019B000C301F32C20000E112100C001C101013030
:1019C000C2070030C33DF32C23003B08013A031942
:1019D000952C033A0319B02C013A0319BA2C073A93
:1019E0000319C42CDA2C0F302000A7000030A80007
:1019F00021004E092000C80021004F092000C90025
:101A0000C80A0319C90A21004A0820004807A9008A
:101A100021004B082000493DAA008A3181228C31E7
:101A200021004E08200027072100CC004F0820008D
:101A3000283D2100CD004F084D06031D212D4E08E5
:101A40004C06031D452D4F084B06031D292D4E083E
:101A50004A060319452D4F08803A2000C80021008E
:101A60004B08803A20004802031D392D21004A0806
:101A70004E020318402D01302100CC070030442DC8
:101A8000FF302100CC07FF30CD3D4D08CF01CF07FF
:101A90004C08CE01CE0720008C1FB12D6508A70091
:101AA0006608A800A901AA010030AE000030AD0010
:101AB000F930AC008030AB00893166218C312000D8
:101AC0002708C8002808C9002908CA002A08CB002E
:101AD0000B30CB36CA0CC90CC80C890B692D4809D0
:101AE000CC004909CD00CC0A0319CD0A4C08003EB0
:101AF000B600FA304D3DB7009731EA278C3120000F
:101B00006508A7006608A800A901AA010030AE0078
:101B10000030AD00F930AC008030AB008931662177
:101B20008C3120002708C8002808C9002908CA00ED
:101B30002A08CB000C30CB36CA0CC90CC80C890B58
:101B40009B2D4809CC004909CD00CC0A0319CD0AC8
:101B50004C08003EB6007D304D3DB7008731F5277B
:101B60008C3101302000C80048082100E8076808CF
:101B70000339031DCC2D200061082100DD01DD07A4
:101B8000200060082100DC01DC075608A63EDE00CC
:101B9000FF30573DDF00E52D03302000A700003067
:101BA000A800210068082000C800C9014808A90051
:101BB0004908AA008731AD278C3120002808270466
:101BC000031DE42D0B30E72D21000B302000C80051
:101BD0004808B50021005D082000B701B7072100C3
:101BE0005C082000B601B60721005F082000B9019B
:101BF000B90721005E082000B801B80756308A31C5
:101C0000D5228C312000A7015630873156278C31E0
:101C100020008C1B222E21006208013A031D222E77
:101C200020006508C8004808A70006308831AC20AD
:101C30008C3120006608C8004808A70007308831AA
:101C4000AC208C31003020008C1B0130C8004808CB
:101C50002100E20020006408C800C90148082200F1
:101C6000D000200049082200D10020006108210096
:101C7000DB01DB07200060082100DA01DA07003011
:101C80002000AA000030A9000330A800E830A70017
:101C900022004F082000AE0022004E082000AD00B8
:101CA00022004D082000AC0022004C082000AB00B0
:101CB0008A313E228C3120002A0829042804270476
:101CC000031DFE2F2300BB08031DFE2F200061080B
:101CD0002100B301B307200060082100B201B20760
:101CE000F6302000C80048082300BA000A303A0243
:101CF00003189E2F3A0820006507E50066080318C0
:101D0000660AE6006508643EA7000030663DA8004C
:101D1000A901AA010330AE00D030AD009030AC0074
:101D20000030AB008631D4268C3120002808B70162
:101D3000B7072708B601B6079731EA278C3120008C
:101D40006508643EA7000030663DA800A901AA010D
:101D50000130AE00E830AD004830AC000030AB00E0
:101D60008631D4268C3120002808B701B707270810
:101D7000B601B6078731F5278C3102302000CA0042
:101D80000430C900BA30C800C80BC42EC90BC42E19
:101D9000CA0BC42E000009308A3100228C31200089
:101DA0002808D701D7072708D601D6072300B9018D
:101DB000083039020318282F21003B08BD01BD0758
:101DC0003A08BC01BC073908BB01BB073808BA0197
:101DD000BA073708B901B9073608B801B8072000B3
:101DE0005D082100B701B70720005C082100B6019B
:101DF000B60720005B08DD01DD075A08DC01DC07BF
:101E00005908DB01DB075808DA01DA075708D9015E
:101E1000D9075608D801D80709308A3100228C31F9
:101E200020002808D701D7072708D601D607F930A0
:101E3000C8000000C80B192F1D2F00000130200022
:101E4000C80048082300B90708303902031CDC2EFB
:101E500008302000A7000030A80058085607C80026
:101E60005908573DC9005A084807CA005B08493D50
:101E7000CB005C084A07CC005D084B3DCD0021003B
:101E8000360820004C07CE002100370820004D3DC9
:101E9000CF002100380820004E07D000210039086B
:101EA00020004F3DD10021003A0820005007D20009
:101EB00021003B082000513DD30021003C082000B8
:101EC0005207A90021003D082000533DAA008A3195
:101ED00081228C3120002808D501D5072708D4019C
:101EE000D40721003308803A2000C8005508803A02
:101EF0004802031D7E2F5408210032020318942F3C
:101F0000200055082100B301B30720005408210028
:101F1000B201B207200066082100D301D3072000D8
:101F200065082100D201D20701302000C80048080E
:101F30002300BA070A303A02031C7A2E2100530804
:101F40002000E601E607210052082000E501E50730
:101F50006508643EA7000030663DA800A901AA01FB
:101F60000330AE00D030AD009030AC000030AB009C
:101F70008631D4268C3120002808B701B7072708FE
:101F8000B601B6079731EA278C3120006508643E18
:101F9000A7000030663DA800A901AA010130AE00EB
:101FA000E830AD004830AC000030AB008631D426BC
:101FB0008C3120002808B701B7072708B601B607FB
:101FC0008731F5278C3102302000CA000430C90067
:101FD000BA30C800C80BEA2FC90BEA2FCA0BEA2F88
:101FE0000000200055082100D701D7072000540821
:101FF0002100D601D6072000DE01DF018431CA2C82
:102F9600FC302100990008007C083D00A5007D0852
:102FA600A6000800640080010131890BD62F003489
:102FB6007C083D00A3007D08A4001117080023002B
:102FC6008C138C1221008C178C160C17080020000D
:102FD60036083D00A500200037083D00A600080081
:102FE60021000E178E1723009C0144309B001E15EE
:0A2FF6009F151E129D171D160800FE
:020000040001F9
:04000E0084F9FFDF93
:00000001FF
