:020000040000FA
:100000001428000000000000F0000308F1000B19A4
:100010000A280F280B117214CD3095000F28710893
:100020008300F00E700E09002100FC3099002100C1
:100030000E11833095002000CD3095000310831001
:1000400003118B178B1620007D3076080E152100CA
:10005000F0309E000F309F0021008C1423008C1480
:10006000210005309D006430FD00FD0B35280000A7
:100070009D143D000230A6008030A5000130A40090
:100080004030A300A201A10101309400033095008B
:10009000AE0096011C141A141B140630A900AA0005
:1000A000F130910021000E108E10230000308E00E0
:1000B000F210721CA0287210F60BA02820007D30D0
:1000C000F60021009D189C281C08F5001B08F40070
:1000D0009D143D30F9001B08FA00F701F8012000DB
:1000E00003107A08F8070318F70AF90B6F28780845
:1000F000FB007708FC003D30F9001C08FA00F7010E
:10010000F801200003107A08F8070318F70AF90B22
:1001100081287808FC0703108030FB070230FC3D83
:100120003D007B08A5007C08A600FB367B08A300E9
:10013000FC367C08A4001117200004308E06F2144F
:0201400058283D
:040142000034003451
:020000040001F9
:02000E00A43F0D
:02001000FF1FD0
:00000001FF
